:020000040000FA
:1000000038710120E12C02009BA70300CD2C0200D7
:10001000CD2C0200CD2C0200CD2C0200CD2C0200F4
:10002000000000000000000000000000792E020027
:10003000CD2C020000000000DD2D0200CD2C0200BE
:1000400089300200893002008930020089300200C4
:1000500089300200893002008930020089300200B4
:1000600089300200893002008930020089300200A4
:100070008930020089300200893002008930020094
:10025000893002007BD80300893002008930020017
:10026000893002008930020065D80300893002001D
:100270008930020089300200893002008930020092
:100280008930020089300200893002008930020082
:100290008930020089300200893002008930020072
:1002A0008930020089300200893002008930020062
:1002B0008930020089300200893002008930020052
:1002C0008930020089300200893002008930020042
:1002D0008930020089300200893002008930020032
:1002E0008930020089300200893002008930020022
:1002F0008930020089300200893002008930020012
:100300008930020089300200893002008930020001
:1003100089300200893002008930020089300200F1
:1003200089300200893002008930020089300200E1
:1003300089300200893002008930020089300200D1
:1003400089300200893002008930020089300200C1
:1003500089300200893002008930020089300200B1
:1003600089300200893002008930020089300200A1
:100370008930020089300200893002008930020091
:100380008930020089300200893002008930020081
:100390008930020089300200893002008930020071
:1003A0008930020089300200893002008930020061
:1003B0008930020089300200893002008930020051
:1003C0008930020089300200893002008930020041
:1003D000893002004FD803008930020089300200C2
:1003E0008930020089300200893002008930020021
:1003F0008930020089300200893002008930020011
:100400008930020089300200893002008930020000
:1004100089300200893002008930020089300200F0
:1004200089300200893002008930020089300200E0
:1004300089300200893002008930020089300200D0
:1004400089300200893002008930020089300200C0
:1004500089300200893002008930020089300200B0
:1004600089300200893002008930020089300200A0
:100470008930020089300200893002004660A47E83
:100480005A3E86B90108040000000000020804007A
:100490000300000003080400030000000018060029
:1004A000302E332E33000000010904000400000048
:1004B00002090400020000000309040063000000B8
:1004C00000190700342E322E39390000FFFF0000DA
:1004D000064A074B02604FF43672DB7882800822AE
:1004E000C371002382710372704700BFE9230100CA
:1004F000601D0020064A074B02604FF4B472DB7A9D
:1005000082800822C371FF2382710372704700BF8B
:10051000631F0100601D0020064A9378D2781344BF
:10052000002282600260044A4260C371FF230372AA
:10053000704700BF601D0020700008002DE9F341E6
:10054000C41D0028064624F007040CBF00202046E6
:1005500000F024FD071E04DA6FF00B0002B0BDE8C6
:10056000F081374DE988A88803316B7A03302A7A05
:1005700089B280B20EF03DFE0028EDDB3C44A97844
:10058000EB78002E04F10304194424F0030400FB6B
:1005900001F10CBF0020204600F086FE20440EB979
:1005A0000028D9DBEA7A0446B2B1EB7B697C1344BC
:1005B0001944FF29D0D80330002EAA89C9B220F0EF
:1005C00003040CBF0020204600F0E0FE0028C3DB3F
:1005D00004440EB9002CBFDB012000F0D5FCB0B103
:1005E000A97BA1B195F82B3033B340234FF481722E
:1005F0000734002E24F007040CBF0020204601F031
:1006000015FF0028A8DB04440EB9002CA4DBAB7A4C
:10061000FBB1EB7AB3B10734002EA97A24F00704BA
:100620000CBF0020204604F077FF002894DB044430
:100630007EB9002C0DDA8FE725232822D8E700BFEA
:10064000601D0020012000F09FFC10B1AB7B002B4F
:10065000E1D1734B1B6893B1A97D81B10334002EA6
:10066000EA7D24F003040CBF0020204698470028B0
:10067000FFF672AF044416B9002CFFF66DAF694B5C
:100680001B688BB1297C79B10334002E24F003045C
:100690000CBF0020204698470028FFF65DAF0444B9
:1006A00016B9002CFFF658AF5F4B1F68B7B1697CD5
:1006B000A1B10334002E2B7D24F0030408BF0020D9
:1006C000009318BF2046EB7CAA7CB8470028FFF6B1
:1006D00043AF044416B9002CFFF63EAF072000F0EC
:1006E00053FC98B1A97D89B10334002E2A7E24F0F1
:1006F00003040CBF0020204600F036FF0028FFF660
:100700002BAF044416B9002CFFF626AFB6FA86F7D5
:1007100095F823007F09A0B103346B7FA97E24F0F4
:10072000070419443B4644F00404C9B2224600F0D1
:100730005BFF0028FFF610AF044416B9002CFFF64B
:100740000BAF95F8241000294CD004F10708002EB7
:10075000EA8C28F007080CBF002040460EF05DFD33
:10076000041EFFF6F9AE4444002E3ED1002CFFF6E5
:10077000F3AEA97F002945D095F82230002B41D057
:100780002A8C0734002E02F1240224F007080CBF43
:100790000020404692B20EF040FD0028FFF6DCAE8D
:1007A000404416B90028FFF6D7AE03302B7FA97E50
:1007B00020F0070019443B4640F0040495F822005D
:1007C000C9B2224600F002FF0028FFF6C5AE04447D
:1007D00086B9002CFFF6C0AEEB6AF3B1C6B1EC628D
:1007E0000020BBE6002EC4D08846E98C404609F0C4
:1007F000DDFFBEE72A8C4046A97F083292B209F09D
:10080000DBFFE9E7002EE7D0002211461046F6E7AD
:1008100028343FF5A1AE2046A0E6002EE0D1FAE74D
:100820006C09002070090020740900201FB572B601
:10083000194B1C6BECB9BFF34F8F1849184BCA68A2
:1008400002F4E0621343CB60BFF34F8F00BFFDE7BC
:10085000B2FBF6F22B465D1C002AF9D1DBB203F1A4
:1008600010056D4405F80C2C0A2233B901A8A047E5
:10087000E1E7024600230A26EDE7013BDBB203F184
:1008800010050DEB0506B0FBF2F502FB150030304C
:1008900006F80C0C2846E8E7601D002000ED00E09B
:1008A0000400FA0513B5124C68462389ADF80030F0
:1008B000E388ADF80430A388ADF8023002F04EFCB6
:1008C00018B1FC219C20FFF7B1FF207D02F076FCDF
:1008D00008B1FF21F6E7E07C02F06AFC10B14FF4AA
:1008E0008071EFE794F8290008F056FB02B010BDC4
:1008F000601D002070B5054600285BD00CF094FE0A
:1009000018B94FF0FF34204670BD0CF0E7FAB0F58F
:10091000FA7FF6D8294C012629482563002500F0E6
:10092000AFFA284684F83450257084F82B50E562DD
:1009300084F82A5009F0DCFE1A22294604F10F003F
:1009400012F02CFC1B2308210322A3802846E380FD
:100950000223A1721F216372E375F723227223849D
:10096000FB23A2734922E3840A23A1812946E2746E
:1009700084F82930A670E670E672A674267601F037
:10098000FFFD2A463146304601F0AEFD044620B157
:1009900040F2AD319C20FFF749FF0246014601F0CD
:1009A000D1FDEFF3108572B600F044FE002DAAD100
:1009B00062B6A8E76FF01504A5E700BF601D002030
:1009C000A508000038B51446002840F0EE80784DA8
:1009D00095F83430032B00F0E58019B312B96FF0AD
:1009E000150038BD0139172900F2DF80DFE811F06A
:1009F000180029002C0042006C007500940048008B
:100A000078007B008E004E005400620067009A0060
:100A10009D00AC00AF00B200A300B500B900D20049
:100A20001378AB700020FFF789FD0028B7BF0123C2
:100A300002236FF00B0085F83430A8BF85F83430FE
:100A4000CFE71378EB70EDE71379002BC7D053791C
:100A5000002BC4D01288FB2AC1D863881B3B9BB2F1
:100A6000E02BBCD81A2ABAD92368A2886B60514BF4
:100A70009A80D7E71378EA7B9342B0D3EB72D1E741
:100A80001378EA7A9342AAD8EB73CBE71378EA7A21
:100A90009342A4D86B74C5E71378002B9FD053788A
:100AA000013BDBB2F82B9AD8138892786B82424BC9
:100AB0009A70B7E71078687508F016F9B2E71378FE
:100AC000002B8CD02B76ADE7012000F05DFA237867
:100AD00008B1012B83D9AB73A4E71388AB81A1E7DD
:100AE0001378AB759EE7072000F04EFA18B923780B
:100AF000012B7FF674AF072000F046FA18B1237877
:100B0000002B3FF46CAF2378EB758BE71378082B41
:100B10003FF665AF2B7485E71388FF2B3FF65FAF79
:100B2000AB727FE713786B767CE713780E2B3FF67A
:100B300056AFAB7676E72368204AC5F81E30636867
:100B40005360238913816DE71378EB766AE7137896
:100B50006B7767E713782B7764E7137885F828308D
:100B600060E701F0BBFC98B1007900F00102617808
:100B7000207801F0B9FC00287FF433AF6378012BB3
:100B80007FF650AF09F0BAFD00287FF44BAF26E79F
:100B90000246ECE713785A1E092A3FF620AF85F883
:100BA00029303FE74FF0FF301BE76FF02C0018E7CC
:100BB000601D0020641D0020721D00207E1D00208D
:100BC000F8B50D46064630B329B311F0070422D11B
:100BD000124F97F83430012B02D16FF00B00F8BDA3
:100BE000032B02D14FF0FF30F9E700F081F8002825
:100BF000F8D02846FFF7A2FC0028EEDB12F016F82A
:100C00003046F96A02F092FBFFF74CFE03232046C0
:100C100087F83430E3E76FF01500E0E7601D00204F
:100C200010B5074C94F83430032B03D102F09AFB33
:100C300003F0D2FB0EF01EFC002084F8340010BD3F
:100C4000601D002050B1074B03F1140253F8041B40
:100C5000934240F8041BF9D1002070476FF0150053
:100C6000704700BF89B6040008B5064B93F83430CE
:100C7000032B03D001F0D0FF002008BD4FF0FF3060
:100C8000FBE700BF601D002008B502F005FB03492B
:100C90000320BDE8084000F06FB900BFF504000074
:100CA00008B502F00DFB03490220BDE8084000F042
:100CB00063B900BFD104000008B502F023FB02F0C5
:100CC00099FA03490F20BDE8084000F055B900BF6C
:100CD0001905000002680020014B1A60704700BF30
:100CE000981D0020014B1B68184700BF981D00206D
:100CF000024B1868003818BF01207047981D00206B
:100D0000F7B504462D4E071D2C48376003F07CFBD9
:100D10000228054606D1294920460DF0F7FB284652
:100D200003B0F0BD042842D13378092B0AD0262B1A
:100D30001ED0314620460DF065FCB0F5817F2DD3E5
:100D4000722112E005213E200DF0B2FB0028F0D107
:100D5000F37801A93279684643EA0223ADF80030FE
:100D60000EF015F80028CFD053210820FFF75EFDC4
:100D70001A213E200DF09CFB0028DAD173686946E9
:100D800001A8C3F30F23ADF8043011238DF806300A
:100D90000EF023F80028B7D06521E6E70028B3D08D
:100DA000A17820780DF084FB0028B8D1ACE70828A2
:100DB000B5D1024920460DF0E1FBB0E79C1D0020B3
:100DC000074B4FF0FF3141F6FF72C3E900120549AE
:100DD0000022C1E900221F21C3E90212704700BFAF
:100DE00000090020A01E00203F280CD801380B4B22
:100DF000C0F3421200F01F0053F8223023FA00F033
:100E000000F001007047FF2806D04038044BC0F3C3
:100E1000421200F01F00EFE7012070470009002098
:100E2000A01E0020074B0146006849681A4603C20D
:100E300040F48C221A6041F0107242F4FF625A6052
:100E4000704700BF000900200246024B006851684D
:100E500003C3704708090020431EF428DBB201D108
:100E600001F086BB5909054A03F01F0302EB81021A
:100E70009068D84000F00100704700BF00090020D2
:100E8000014B1860704700BFA81E002010B5FFF787
:100E900097FF0EF068FD034B04461B6803B19847AB
:100EA000204610BDA81E00200A8870B595B2C67CE9
:100EB000C2F30E020488023602F118033444C35A06
:100EC000A4B233442344013BB3FBF4F303FB0422F9
:100ED000438892B29342044B8BBF2B40AB431343E6
:100EE0009BB20B8070BD00BF0080FFFF4A1E062A28
:100EF00008B50346084604D84FF4D1711520FFF712
:100F000095FC094A914202D940F2A311F6E711B9C2
:100F100003B1196008BD2BB11B680022C3E9012190
:100F20001A1D1A600430F5E7FAFFFF7F10B5114B68
:100F300000EB41041A786389B3FBF2F303FB02234D
:100F4000013A1A44B2F5706F0279807828BF002305
:100F50001A440B18B2FBF0F100FB11215B1AB3FB32
:100F6000F0F100FB113313446FEA43436FEA53433C
:100F7000638110BDAC1E0020024B03EB800359605F
:100F8000704700BFAC1E0020034B03EB8003586882
:100F9000003818BF01207047AC1E00202DE9F04F2B
:100FA00010F0070A85B0054604D040F26111172001
:100FB000FFF73CFC534F04464FF0010B07F154067A
:100FC000B146B04657F8043B8DF80BA03BB101A8E1
:100FD00098479DF80A30082B01D9E821E7E79DF8EA
:100FE0000B1041BB05B131604F4506F10406E9D154
:100FF000002D6ED00022DFF810911427964689F854
:10100000002058F827A0013FBAF1000F54D09AF8F9
:1010100004609AF802C0FF2E5FD039460023481CB6
:1010200037D19C44BCF1FF0F3ED90AB189F800E0EA
:1010300040F22711BBE79DF80AC04B1D60465A00DD
:1010400004EB4303022838BF0220441E40422344DD
:10105000BDF808406444CCF1000C0340013C04EAB4
:101060000C04B4F5803F01D3F821A0E775B19A1ABA
:1010700032609170148082F803B09DF80C001071FA
:1010800001984FEA104C1081A2F806C004FB01340D
:10109000AAE758F8210028B190F804B0B34504BF7E
:1010A00080781B180139BAE7DBB2E6458AF80430CC
:1010B0003CBF5FFA8CFE01227B1CA2D10AB189F8E9
:1010C00000E0142640F6FF6A58F82670B7B9013ED2
:1010D000FAD2601B05B0BDE8F08F0023E5E707EB0F
:1010E000410309F101093846A3F80AA0FFF71EFFE2
:1010F0005FFA89F1BB788B42F1D8E8E74FF000093D
:10110000F6E700BFB01E0020AC1E002038B54FF639
:10111000FF7302460380184B03EB8103986DA8B15F
:1011200084780379B3FBF4F104FB1133DBB2194685
:1011300000EB4105B5F90A50002D0EDB0131B1FB82
:10114000F4F504FB1511C9B28B42F1D1002038BD72
:101150006381BDE838400EF028B800EB4104638994
:10116000C3F30E031380C278002AF1D14FF4D57176
:101170001720FFF75BFB00BFAC1E00201C4B03EBEE
:10118000810370B59C6D054644B3030404D54FF448
:10119000DC711720FFF74AFB014620460DF0E8FFFF
:1011A000FF28014604D02046BDE870400DF0FDBF89
:1011B000A078B5FBF0F300FB1353DBB219460A1D10
:1011C00004EB4206B6F90260002E09DB0131B1FBE7
:1011D000F0F200FB1211C9B28B42F0D1002070BDB9
:1011E0008B4201D00023E37004EB42025580DAE722
:1011F000AC1E0020094B03EB8103014610B59C6D2A
:1012000020460DF0B5FFFF28014604D02046BDE87A
:1012100010400DF0CABF002010BD00BFAC1E002062
:10122000F8B5104B074603EB810301469C6D204641
:101230000DF09EFFFF28054611D0E288238953EA6E
:10124000024606D0014620460DF0AFFF0146384663
:10125000B04720462946FFF769FE0020F8BD05206B
:10126000FCE700BFAC1E002038B50E4B0446827967
:1012700003EB8203986D08B9052038BD8278E179C7
:101280009142F9D24B1CE37100EB41035D89B3F944
:101290000A30002BF3DBA5800DF087FF20600020D3
:1012A000EBE700BFAC1E002070B5044610F0030051
:1012B0000E4603D04E211820FFF7B8FAFFF716FEAE
:1012C000054624B1034831460460FFF70FFE284667
:1012D00070BD00BF581F00202DE9F14FDFF870B03E
:1012E0001E4607460D46DBF8003090469DF828A0C4
:1012F0009DF82C901BB960211820FFF797FA5246F1
:10130000092140460DF0B4FD4A4684B20921304619
:101310000DF0AEFD81B2DBF8000021440DF0FCFEC3
:10132000386018B9286001B0BDE8F08F0444534616
:10133000414609222C6038680DF05DFD4B460922BC
:101340003146286801B0BDE8F04F0DF054BD00BF34
:10135000581F002070B50E4604460DF09CFD054652
:1013600030460DF098FD044B2A1821461868BDE858
:1013700070400DF0F6BE00BF581F0020024B1868E9
:1013800008B10DF0BDBE7047581F00201F2AF8B5E8
:10139000044613460ED89200033222F00303B3F53D
:1013A000803F2DD2184DACB1A00710D05F2109208D
:1013B000FFF73CFAFF2B4FEA420204D9FF339A426F
:1013C000A8BF1A46E8E77C2AB8BF7C22E4E7297068
:1013D0006C602B8122F0030228230127120403FBF7
:1013E00001F06B680025120CEEB2B14200D8F8BDD6
:1013F00014B126181F705E60104401352833F3E7DE
:101400004FF0FF30F3E700BF5C1F0020154A0021BA
:1014100070B553681578C8B2854203D8AB2109204E
:10142000FFF704FA1C461846013114F8286B0EB970
:101430002346F0E70021997001241289996103F194
:1014400026055C709208D96103F11E04596824F8DE
:10145000022FA54243F8041F1144F8D10023436131
:10146000037070BD5C1F00200A4B1B89B3F5FF7F22
:101470004FEA930006D25A089B1A9BB2984238BF93
:1014800018467047B3F5EE6F01D8FF22F4E740F23B
:101490007263F3E75C1F00204B782DE9F0410646AC
:1014A0000C4602F0040702F0FB05E3B1A5BBFF23E5
:1014B000A3707B0804EB57073A7D032A02D1022D63
:1014C00018BF0133E2180121117503F10C0100224C
:1014D00004EB830324F811205B68A270304633606C
:1014E000B280BDE8F081002DE1D1012301F11E029F
:1014F0008D6120464B7004F1260C1A4BCD611B897F
:1015000049689B0822F8023F944540F8041F19449B
:10151000F8D100236361CAE7D1F8048014220021C6
:10152000A018617011F03AFE0E4B1B89B3F5FF7FD6
:101530000FD25A089B1A9BB208EB0301C4F804802F
:101540002384A1606284C4F80C80A3842161E284B6
:10155000ADE7B3F5EE6F4FF0FF02EBD940F27263E7
:10156000EAE700BF5C1F00202DE9F84305460C4662
:10157000F720052191460DF07BFC061E21DB1DB9ED
:1015800006FB04F0BDE8F88315F0030703D09821AB
:101590001920FFF74BF9DFF83080C8F81050A8F891
:1015A0001460BBB29C42EBD9B8F814504B46D8F843
:1015B00010000522F72107FB050001370DF01BFC89
:1015C000EFE74FF0FF30DDE7701F002007B5CDE9F2
:1015D00000230B4603490246081D0DF025FF03B00A
:1015E0005DF804FB881F002013B5064CCDE90023ED
:1015F0000B46024604F1080104F10C000DF014FF43
:1016000002B010BD881F002008B54B1E032B03D964
:1016100023219020FFF70AF90028054A0CBF052373
:101620000C2303EB8103053323F00103137008BD82
:10163000981F00201F4B4FF0FF3000211A68012334
:101640005360C2F80803C2F80015C2F804351A4AFC
:1016500012685360C2F80803C2F8001540F6FE7124
:10166000164A1748C2F80815B0F90020002A0CDB0A
:10167000510902F01F02934001F12002114941F883
:101680002230BFF34F8FBFF36F8FB0F90030002BC4
:1016900009DB5A09012103F01F03994002F160039D
:1016A000084A42F82310054B40F6FE72C3F808259D
:1016B000704700BF482B0020442B0020002008501A
:1016C0005C2B002000E100E00A4606483D2302F8BA
:1016D000033BC368C1F803300369536043699360F7
:1016E000704700BFA01F0020024B5A8C02435A844F
:1016F0005B6A1847A01F0020014B00215B6A184756
:10170000A01F002010B5154C08F000FC07F096FE55
:10171000208DFFF7F1FF237E63B12246104904F1CB
:10172000190052F80C3BE36063685360A368936050
:101730000FF05EFC0B4B228D93E8030003F01CFFBF
:10174000236B188803F082FEA36B94F8341094F88E
:1017500035009847002384F83C3010BDA01F0020BE
:10176000C9160000CC1F0020034B93F83C300BB18E
:10177000FFF7C8BF704700BFA01F002070B5254C01
:101780000646256B636C95F89420236494F84830E2
:1017900095F8751003EB82002EB9FF2803D195F858
:1017A00074308B4201D008F02DFA95F8943053B381
:1017B000E06C08F08DFC94F82C30E16C003B206C60
:1017C00018BF012384F87030D5E93C23C4E91823FD
:1017D00007F0B8FD5EB995F87530033B012B2B8FF0
:1017E0008CBF00202820184480B208F0B9FCA88ED5
:1017F00008F0ACF995F87410002008F011FD0223F0
:1018000084F83C3070BD206C08F062FC07F016FED6
:10181000E0E700BFA01F00200138C0B2032808B5D0
:1018200004D940F29D410620FFF700F8014B185CF7
:1018300008BD00BF9F18040008B5094B93F83C2071
:10184000022A04D040F24F212720FEF7EFFFDA7A78
:1018500042F00102DA72BDE80840FFF753BF00BF53
:10186000A01F002003280B4B10B5044605D19A6F2A
:10187000D278022A01D1002010BDD86F0DF08AFB6A
:101880000028F9D1032CF6D001F094FF80F001007C
:10189000C0B2F1E7A01F002038B52F4C054694F8E0
:1018A0002C307BB101280DD1638C18070AD5A26FAB
:1018B000137803F00303032B04D1D378022B01D157
:1018C000012038BD0129FBD8D4F88030284698473C
:1018D0000028F5D094F834000028F1D194F82C3089
:1018E0001BB9012D03D01846EBE7002DE9D194F880
:1018F000845025B194F88500FFF7B4FF0546606C6D
:101900000FF0CAFAD4F88830ABB9B4F88C30B3FA17
:1019100083F35B0994F82C10628C71B191070CD59C
:10192000A26F137803F00303032BC9D1D0780238D8
:1019300018BF0120C5E70123ECE7002AC0D1012828
:1019400014BF002303F0010343EA050080F0010007
:1019500000F00100B5E700BFA01F00202DE9F04313
:10196000334C85B00746884694F83C30012BDEB2F4
:1019700004D040F204512720FEF758FF256B02A83F
:10198000A16F0DF079FD95F884309DF8089053B162
:101990000021042085F88410FFF7A6FE94F82C306F
:1019A0000BB185F88660B9F1030F29D0BDF80C3072
:1019B000002B18BF022695F8943085F88A60CBB1C9
:1019C00094F82C30226B003B94F84860D5E93C0138
:1019D00018BF0123C4E9180192F8750084F870302B
:1019E000FFF71AFF002203461249022000923246F6
:1019F00007F0D6FB6FB105B0BDE8F043FFF782BE3C
:101A000095F88A301BB9A16F0220FFF76DFE0326FF
:101A1000D1E7B8F1000FEED039463846FFF73CFF6A
:101A20000028E8D105B0BDE8F043FFF7A7BE00BF2E
:101A3000A01F0020F01F002010B5094CD4F88830FA
:101A400023B940F2F6412720FEF7F0FEB4F88C20CF
:101A50001846216C03320BF08FFF206410BD00BFCD
:101A6000A01F00202DE9F341714C0023256B8DF858
:101A7000053095F8741058B995F8942094F84830CA
:101A800003EB8203FF2B03D195F875308B4202D014
:101A9000FF2008F0B7F895F88A30032B00F2BB80DE
:101AA000DFE803F0023598AB94F88E306148ADF86A
:101AB0000630A5F8643001F053FE58B10121A36F40
:101AC00085F88510DB781B2B1DD105F1100008F07F
:101AD000E5F818E00DF105020DF10601E06F0DF0DB
:101AE00001FAA06798B195F8CF3083B99DF8053019
:101AF0002BB9038001218370A06F0FF0BDF9A36F94
:101B0000BDF806205A70012384F88F3001E04A4B5B
:101B1000A367A76F95F88B203B78D20003F00306EC
:101B200003F0F30302F008023046134395F88C20CB
:101B3000920002F0040213433B70FFF793FE3B78E0
:101B400023F0100343EA00133B70A06F90F801806C
:101B50000FF0A6F995F89330071E18BF0127002B48
:101B60005CD0B8F1000F59D0E06C08F0B1FA94F8ED
:101B70002C30E16CB3FA83F3A06F5B0984F870300A
:101B8000D5E93A23C4E918233A4608F0E1FC18B92C
:101B9000A16FE06C07F06AFB30460DF09AFCE88E0E
:101BA00007F0D4FF95F875100120012508F038FBE7
:101BB000A06F84F893500FF06FF9A36F84F884003E
:101BC0001B7884F83C5003F0030384F8853002B09E
:101BD000BDE8F081B5F864300DF105020DF10601A4
:101BE000E06FADF806300DF07DF9A06700288AD1CE
:101BF00040F2F1212720FEF719FE0E4801F0B0FD5A
:101C000010B940F2FB21F5E7A36FDB781B2B7FF4C3
:101C10007AAF012159E740F20931EBE7A06F08F0F4
:101C200057FA07F00BFC3946A06F11F026F8B3E71E
:101C3000A01F00201820002030200020064B10B5E7
:101C400093F83C2002F0FF0422B91C7603F08CFCD0
:101C5000204610BD0C24FBE7A01F00200A4B0B4AB6
:101C600070B506460D461A60FFF7E8FF18B1F4217B
:101C70002720FEF7DBFD064C012104F190000FF058
:101C8000FBF86664E56470BD780900201C24000040
:101C9000A01F0020024B012283F89420704700BF50
:101CA000A01F0020F0B585B09A4C02AE0A9F86E8CE
:101CB000030094F83C1001F0FF0511B90AB103B11B
:101CC00027B940F283112720FEF7B0FD96E8030004
:101CD00004F12C0C84F8945084F8345084F8955016
:101CE00084F8355084F8935084F88F5065842585A6
:101CF0006262C4F88030A7638CE80300256B07F0AC
:101D0000EFFF07F09BFB95F97C0008F04FF8AE6AF7
:101D1000286A08F051F8304608F0BEF995F8A4009A
:101D200008F054F894F82C60002E40F0A7800FF0D3
:101D300039FE95F87420784B4FF47A7153F82230BD
:101D400003F5FA73B3FBF1F354331918304608F076
:101D5000C9F8724B724E05F58477186808F0A2F93D
:101D60006B69E367AB69C4F8983005F1F80318684C
:101D7000083353F8041C3246BB4203C21646F6D160
:101D80005968684AD5F8080103C2226B92F88E3070
:101D900092F87460A3F12601012903D992F88F10FB
:101DA000262976D194F82C30002B6FD192F80A12A4
:101DB00030460DF07EFB064605F13C0731463846BD
:101DC0000FF0F0F931460EF09CFDB5F8483095F86B
:101DD0007510834228BF0346384684F88E300FF0D2
:101DE0008FF995F8751095F894700429B5F850603E
:101DF00008BF03210EF085FD0FB9043080B2864282
:101E000028BF0646F6B284F89C6002F0D9FB28B1E0
:101E100002F0DCFBB04238BF3046C6B294F82C70FA
:101E200084F84860002F5AD195F893308BB1012384
:101E300095F8740084F87030D5E93A23C4E9182382
:101E4000FFF7EAFCFB22034635490420009707F020
:101E5000A7F90120FFF706FE002323606360A3605B
:101E6000B5F8883063802B88238095F8A4302371DF
:101E7000AB6F0BB101221A6005B0F0BD0FF092FDFF
:101E800095F8752000F17601012060E792F8A21222
:101E90008EE7213B012B11D8242911D094F82C3046
:101EA000CBB192F82E315A0713D413F001017FF40D
:101EB0007FAFC3F340035B00D9B279E724290AD18D
:101EC00094F82C303BB192F82E3192F86D201340EB
:101ED000E9E704216CE7032E08BF04266CE795F8B8
:101EE000943093B1012395F8750084F87030D5E9EA
:101EF0003C23C4E91823FFF78FFC0022034608495E
:101F000000920220324607F04BF90120FFF736FC21
:101F1000A2E700BFA01F0020E01B040078090020FA
:101F2000F01F00200820002008B5114B93F83C203A
:101F30001AB9BDE80840FFF7E5BB93F82C2042B979
:101F400093F83C30012B12D040F22D212720FEF7D0
:101F50006DFC93F83C20022A02D040F23121F5E7D3
:101F60001B6BD3F8D801BDE8084008F0CDB808BD18
:101F7000A01F0020014B1876704700BFA01F002053
:101F8000014B93F893007047A01F0020044B93F877
:101F90008F0018B993F82900C0F30010704700BFF4
:101FA000A01F0020024B93F82900C0F3C000704727
:101FB000A01F0020014B93F895007047A01F002040
:101FC0002DE9F043314D85B004460F4602A8296C37
:101FD0002E6B0DF051FA14F00109BDF80C8004F0DD
:101FE000020428D0002385F89D3094B1FFF724FD2A
:101FF0000DF1020201A9D5F898000DF077F80198CB
:102000000DF05AF8012238604146D5F898000DF0DD
:1020100002F8B9F1000F0BD0D6E93C32013342F19E
:102020000002C6E93C3296F88C30013386F88C30D9
:1020300005B0BDE8F08395F89D30032B20D801A2B0
:1020400052F823F0EB1F0000552000006F20000025
:102050006F200000002CEBD0FFF7EEFC0022414681
:10206000D5F8980005B0BDE8F0430CF0D4BF002CC3
:10207000DED0D5F8980005B0BDE8F0430DF032B8D9
:1020800040F2A2412720FEF7D1FB00BFA01F002095
:102090002DE9F04F0023B74C87B080468A46276B66
:1020A000CDE9023394F83C30022B04D040F28B513E
:1020B0002720FEF7BBFB216C04A80DF0DDF9BDF86D
:1020C000146097F89430B8F1000F00F059819DF832
:1020D00010909DF811B0002B3AD007F0BDF9B8BBB5
:1020E0006EB197F88C3003F001035B450BD10123EF
:1020F00084F83530FFF706FB07B0BDE8F08FA4F891
:102100008C60002006E0A4F88C603146D4F898007A
:102110000CF061FF238D9DF8122043F40073C4F886
:102120008800238597F88B3003F001039A4200F072
:10213000C880256B95F88A30002B3FD0022B13D135
:1021400002A9E06F0CF0F0FE38B940F23B41AFE776
:10215000A4F88C60002ED4D0D7E7D5E93A32013309
:1021600042F10002C5E93A32002194F82C3085F89A
:102170008A103BB195F8863023B1102085F886107F
:10218000FFF7B2FA95F885309BB1002185F88510EC
:1021900001F0F8FA002110B940F2524188E7082016
:1021A000FFF7A2FAD5E93A32013342F10002C5E95C
:1021B0003A3295F88B30013385F88B30238D00252A
:1021C00043F40063238597F88C3003F001035B45EB
:1021D00079D0002648464FF000090DF07AF997F8BB
:1021E0009330B3B194F82C3097F87400B3FA83F3BA
:1021F0005B0984F87030D7E93A23C4E91823FFF764
:102200000BFB002203465C4900920420FB2206F0EF
:10221000C7FFBAF1000F00F0DE8008F037F8002E9B
:1022200040F0F1804FF00109238D5A0606D440207A
:10223000FFF762FA238D43F04003238585B194F8BC
:102240002C3043B1B4F80720B4F805301343B7F885
:102250008820134304D0B4F809300133A4F80930BE
:10226000B8F1000F00F0D480B4F805300133A4F8C1
:102270000530002384F89530404803F04DF802986B
:1022800030B10CF019FF216B0022027202F000F94C
:10229000039B33B1216B00221A720C22039802F0C7
:1022A000C5F8B9F1000F7FF425AF238D1B063FF56C
:1022B00023AF8020FFF720FA238D43F0800323858E
:1022C0001AE745467FE7B9F1020FD4F830B012D8CB
:1022D000B9F1000F1DD19BF88C3001338BF88C3095
:1022E000002E3FF476AFDBE93C32013342F10002CD
:1022F000CBE93C326DE7B9F1030FECD1238D01201E
:10230000216C43F480538BF884002385FFF7ECF9AC
:10231000E1E7002EDFD0238D9BF894B043F4805387
:10232000238507F021FC042894F89C3007D1BBF1E9
:10233000000F0CBF1F221B22934228BF13469E4250
:102340000BD8D4F88830002B3FF443AF94F8943086
:102350006BB12020FFF7D0F93BE794F8343001202F
:1023600043F0100384F8343009F0DEFD31E74646CF
:1023700030E700BFA01F0020F01F0020CC1F00206E
:102380000BB107F07DF894F89530013384F895305F
:10239000238D43F48063238597F87530033B012B2D
:1023A00011D8012009F0C0FD07F0DEFB011FD1F1BB
:1023B000000949EB01091B2E4FF0000698BF4FF0B2
:1023C000000935460BE702F0FBF881460028E8D10A
:1023D0000646054603E794F895100120FFF75CFADE
:1023E00000287FF41AAF1EB103A90120FFF7E8FD12
:1023F0000020FFF737FB002E3FF416AF03A90220A1
:10240000FFF7DEFD10E703A90320FFF7D9FD09E779
:10241000B4F807300133A4F807302DE7391800006D
:10242000912000005D19000069170000343270B57A
:10243000054692B20C461E460CF0EFFE25B1034A4B
:10244000556014745674147070BD00BF582000207D
:10245000014B1870704700BF110900200138C0B24D
:10246000032808B504D94FF461710620FEF7DEF9A0
:10247000014B185C08BD00BFCE1804000138C0B283
:10248000032808B504D94FF461710620FEF7CEF990
:10249000014B185C08BD00BFEB1804000138C0B246
:1024A000032808B504D94FF461710620FEF7BEF980
:1024B000014B185C08BD00BF4C1904000138C0B2C4
:1024C000032808B504D94FF461710620FEF7AEF970
:1024D000014B185C08BD00BF571A0400014B186877
:1024E000704700BF4421002008B5034610465A1E1D
:1024F000032A10D84A1E032A0DD8084A0129517010
:102500000CBF00210A211071937091721946FFF7D8
:102510007BF8002008BD6FF01500FBE7B40F00202A
:10252000074B5A8A38B142F01002987A5A82DA8AF6
:102530009A839877704722F0100298835A82F8E7BE
:10254000B40F002010B4094C637A60B143F0040367
:102550000029637210460CBF0023072363715DF8E6
:10256000044BFFF7DDBF03F0FB03F1E7B40F0020DE
:10257000024B987CC0F30010704700BFB40F0020DE
:1025800040EA4100014BD870704700BFB40F0020F3
:10259000F8B50D46074640F67A4CBDF81860A81FFE
:1025A000BDF81C1080B2604515D8941FA4B26445D4
:1025B0008CBF0020012087B9194C247984B188B9D7
:1025C0006FF45067EC19062C04D86FF4506414199A
:1025D000062C07D9F8BD0020EDE797F87D40EDE720
:1025E0000028F7D0954218D803FB0111B1F5FA7F06
:1025F00013DCA6F10A0340F676409BB283420CD866
:1026000010460CF0B5FF42F2107341435E43B6EB47
:10261000410F8CBF01200020DCE70020DAE700BF7B
:1026200050210020304BF0B5B0F868700C461146D0
:102630001A88B0F8666085B097425D8828BF174653
:10264000964228BF16461B2E2ED0B5F5A47F2DD05E
:1026500040F6480301AA9D4228BF1D460CF0C5FF65
:10266000BDF80A30BB4228BF3B46E380BDF80C30C2
:10267000AB4228BF2B462381BDF80630B34228BFAA
:1026800033466380BDF80830AB4228BF2B46A38099
:10269000FF232370E3881B3B9BB2E02B08D940F259
:1026A000F5613920FEF7C2F81B2FCED105B0F0BD81
:1026B00063881B3B9BB2E02B02D940F2F761F0E745
:1026C000238940F64812A3F5A4739BB2934202D922
:1026D00040F2F961E5E7A388A3F5A4739BB29342A6
:1026E000E4D940F2FB61DCE750210020F7B500237C
:1026F00004460E461746CDE900336846FEF7B4FDA2
:1027000008B1002016E0009DA542F6D03046EB1C33
:102710000CF028FF3946AA780EF007F80028ECD014
:1027200005F10A036A7A04F10A01607A0DF0FDFFEF
:102730000028E2D003B0F0BD054A134692F82020ED
:1027400053F8211B11F8030BC0F380100DF0EDBFFF
:10275000D826002010B503210020FEF74BFD0446CB
:1027600070B90321FEF70AFD044620B940F2933107
:102770003920FEF75BF8034B93F964100FF0B5FBBB
:10278000204610BD502100202DE9F04F87B00746AC
:102790008846008804A90EF016F8064600287CD169
:1027A000059D95F87531002B6DD0B8F1020918BF61
:1027B0004FF0010995F88F30232B95F8E13043EA6B
:1027C000D3030CBF89F0010A4FF0000AD90702D4E5
:1027D000BAF1000F63D0B8789DF8104008B900F046
:1027E00029FE8DF80B00F87808B900F023FE2E4B77
:1027F0008DF80C00D3F800B0BBF1000F0BD00AF03D
:10280000010320460DF10B022946009303ABD84784
:10281000044600283AD19DF80B20B2B39DF80C3045
:102820009BB3164695F87D2032B1B20703F0020340
:1028300037D5B3B302231E46FF2285F82D21B9F107
:10284000000F28D195F82C2102F0FF041ABB85F85F
:102850002C8103A985F82E61284685F82F31BB8885
:10286000A5F83031BA78ADF80E308DF80C20FA7832
:102870008DF80D200EF066F8002385F82D312046E6
:1028800007B0BDE8F08F814694E70924BAF1000F44
:10289000F5D00023C6E73A24EEE70446EFE71A2412
:1028A000EDE70924EBE700BFA409002038B50DF0DF
:1028B0003BFF002501F024F9234C00F0C9FD0EF088
:1028C0006FFB02F03BFE01F077FB01F041FB0120C2
:1028D00000F066FD1D4B1E4A29461D601D4BA4F8E5
:1028E00054501A601B22DD839A80F9221D8483F8DC
:1028F00022501D77184B22835868184A1B89226082
:102900001422E06104F124002384A576A580A57536
:1029100010F044FC012342F2107204F13A0084F8F2
:10292000575084F8243084F83930C4E90A2210F072
:1029300049F904F1440010F06AF90022002384F8F8
:102940007050C4E91A2338BD502100207C090020B2
:1029500003021B0014260020EB1804001B00480192
:10296000064B41F64C521B215A611974C3E90222ED
:1029700041F288329A61FFF799BF00BF1426002008
:1029800073B5344D0446AB68C363334B1B79003BCE
:1029900018BF012380F87D30304BC3610FF0BDF8C4
:1029A000064600F041FD8306297C53BF1B236B883C
:1029B000AA881A46A4F86630294BA4F868201B6838
:1029C00084F84410A4F846601BB194F97C10208868
:1029D0009847244B1B6813B1234920889847234903
:1029E00020460DF0AFFF01236386214B1B6813B116
:1029F0000021208898471F4B1B6813B100212088B5
:102A000098471D4B1B680BB1208898471B4B1B68D0
:102A10000BB120889847AB8804F114006A88697864
:102A20000333033201919BB2297892B2009104F1F1
:102A30001801FEF751FC636923B940F2CC613920DB
:102A4000FDF7F4FEA36913B940F2CD61F7E700206A
:102A500002B070BD142600205021002000093D0066
:102A600090090020840900205821002032260020EF
:102A7000A8090020980900209C090020A009002036
:102A80002DE9F34104460E460FF070FA002800F0DD
:102A9000B08020460FF0E9FA30B1B6F80130013BC2
:102AA0007F2B01D9122004E020460FF0E2FA18B97A
:102AB0000C2002B0BDE8F08120460FF0C0F80028DD
:102AC000F6D120460FF0FBF907460028F0D120464A
:102AD00004F0A8FA0028E5D042F21073B6F801809D
:102AE000F178204603FB08F80FF0AAFA04213078A9
:102AF000FEF780FB054606213078FEF77BFB2DB103
:102B000040B141F683413920FDF790FE08B30546F8
:102B100090F8BD70384E3368DBB1403528460EF072
:102B200039FFB0B128460EF029FF90B93FB1334BC1
:102B300028461B68984760B141F69741E3E7304962
:102B40003A46336828464969984710B141F69C4196
:102B5000D9E720460FF081FA014640B942462046A7
:102B600003F0E0F9002842D041F6A541CBE720462A
:102B70000FF07BFA40B902210DF10600FEF7C6FA0C
:102B8000054658B90D2094E720460FF081FA002839
:102B9000F1D11C4B1B79002BEDD183E700210DF007
:102BA00028FEBDF80630204629462B800FF09BFA00
:102BB00020460FF06DFA88B9216A20460FF072FAAC
:102BC00001462846FFF7DCFE42462946204603F030
:102BD000A9F9024620B141F6C84194E70121F0E786
:102BE000084B1B6E1BB105F59171284698470020D4
:102BF0005FE742205DE700BF8009002088090020D0
:102C00001426002050210020024B1B6803B11847F6
:102C10000C2070477C09002008B501F05DF90CF02C
:102C20007DFD024B83F8640008BD00BF50210020E9
:102C3000B0F9002011B292B2F8B502F5A0639BB2D0
:102C4000B3F5206F37D8B0F902301DB29BB203F54F
:102C5000A06080B2B0F5206F2DD802F2F64040F2AD
:102C6000BE5480B2A04228D803F2F64080B2A042FF
:102C700023D800294FF00A04C4BF093211B2002D35
:102C8000C8BF093391FBF4F4C8BF1DB201F068F965
:102C90000A2367B2064695FBF3F1384649B201F0C4
:102CA00051F9074B1B6813B1A01B40B208B90020B3
:102CB000F8BD9847FBE73020FAE71120F8E700BF9E
:102CC0008C090020034B5A8802801B7883700020F7
:102CD000704700BF142600207FB5837806461A2B64
:102CE00008D8042B04D9334A22FA03F3DB0705D4AE
:102CF00012251AE0292B01D03B2BF9D13088B0F5F1
:102D0000706FF5D269460DF05EFD88B9019B93F8AE
:102D1000202102F0FF05C2B9B27883F82121FF22F9
:102D200083F8202168460EF014F9284604B070BDDF
:102D300009213088FEF75EFA0446002837D002A940
:102D4000B0F8AC010DF03FFD08B10C25EDE708210E
:102D5000B4F8AE01FEF74EFA20B940F6352139201D
:102D6000FDF764FD03781BB994F8C831032BECD14F
:102D7000039B93F83621002AE7D194F8F02102F062
:102D8000FF05002AE1D1B4F8B021A3F8382194F866
:102D9000B82183F83A21027D83F83B21B27883F889
:102DA0003C2184F8F021FF2283F83621BDE702257B
:102DB000BBE700BF200038040188A1F11B039BB2D0
:102DC000E02B0CD8428844F24810A2F5A4739BB2C1
:102DD000834204D8034B002019805A807047122088
:102DE000704700BF50210020034B1A885B88028087
:102DF00043800020704700BF5021002038B5027882
:102E0000447802F0010302F0020254EA030101D106
:102E1000112038BDBAB98578002DF9D0002B18BF24
:102E2000002400E01D4620460CF0D2FB0028EFD025
:102E300028460CF0CDFB0028EAD0054B00209C77FB
:102E4000DD771884E5E7002BECD000242546EAE77F
:102E50001426002013B5008869460DF0B4FC18B1A3
:102E60000224204602B010BD68460CF0ACFC0028DD
:102E7000F6D0019890F832310BB13A24F1E790F88E
:102E8000DA3003F0FF04002BF7D190F8D1309B0724
:102E900006D1FF2380F8323168460EF05AF8E0E799
:102EA0000249D2300EF0A4F8DBE700BFB5180100EC
:102EB000F7B5067804460F46EF2E03D912263046A2
:102EC00003B0F0BD90F901204378002AF6DB827848
:102ED0009207F3D113F0100048D19D0603F00302CE
:102EE00041D5002AEAD119074FD503F06702012A1C
:102EF000E4D1627A013A062AE0D8A27A032ADDD820
:102F000013F0040102D1023A012A03D8E27A012A1D
:102F1000D4D811B9A27C032AD0D8227D002847D06A
:102F2000012ACBD1237E012BC8D8002850D063784A
:102F3000D90703D500F0E0F9002850D06378227D4E
:102F400003F01803082B5AD1022A48D10321304636
:102F5000FEF750F90546002857D00EF070FE002805
:102F60005FD00C26ABE7032ABDD1A7E713F0600FB3
:102F7000A4D103F00702052A05D003F00F010D22AA
:102F8000CA40D2079AD51D07B3D42179E278E579F2
:102F900042EA0122617942EA0142A17941EA05212E
:102FA000257A41EA05418A4288D81F2AA1D885E7B7
:102FB000022A04D103F06F03092B7FF47FAFA37DB6
:102FC000013B022B3FF67AAFE37D0F2BAAD975E7C1
:102FD00000F030FA820707D4237D022B01D111269D
:102FE0006DE7A37D022BFAD000F024FA43079ED4AC
:102FF000237D032BF3D0A37D032B98D1EFE7022A87
:10300000A4D0237F002BA1D0E9E703213046FEF7AF
:10301000B5F80546002843D0224B93F964100EF012
:1030200064FF002130460FF05FFA28BB28460FF0FE
:1030300011F821463870E074284604F04DF8E37E1C
:103040000646002B3FF43BAF00287FF438AF024622
:10305000E96C6846FEF720FA3246E86C01210CF074
:1030600031F9E96C68460422FEF716FA3246314619
:10307000E86C0CF027F922E740300EF08BFC0028BA
:10308000D4D0637813F0330F7FF418AFA67D2846B1
:10309000296A0FF007F8FFF7F1F98642C6D060E71A
:1030A00007260CE75021002030B502798BB003468B
:1030B000042A4FD84088B0F5804F4BD826490024C9
:1030C0001144ADF800408DF808408A7C4D7B42F0F9
:1030D00010028DF8244042EA4502CD7D097F42EA84
:1030E000850242EAC102694602F01F028DF8002003
:1030F000BDF80020ADF809201A888DF80E00000AEE
:103100008DF80B20120A8DF80D408DF80C208DF8EB
:103110000F008DF810405A7BD3F807008DF811206E
:103120005A79059002A88DF812209A798DF813200B
:10313000B3F80B209B7BADF818208DF81A307F2355
:103140008DF81B304FF00113CDE90734FFF7B0FEC7
:103150000BB030BD1220FBE7EB18040002780346E9
:1031600072B1427862B142881A2A09D982881A2A31
:1031700006D90068034A106000209B88938070473E
:10318000122070471426002002680020014B9A602C
:10319000704700BF142600200378A3F10A02112A09
:1031A0009BBF024A0020122013747047142600208F
:1031B000014B18760020704750210020014B5876B3
:1031C0000020704750210020024B1B6803B11847B4
:1031D00011207047AC09002008B5052000F0ECF87C
:1031E00005F050FD014B024A1A6608BD502100202F
:1031F0002526000008B5212000F0DEF8222000F08E
:10320000DBF805F04BFD054B054A1A60054B064AF5
:103210001A60064B064A1A6008BD00BF8C090020E0
:10322000FD290100900900201D8E00009409002056
:103230002B29010008B503F0D7FE02F071FF024808
:10324000BDE8084003F0BABEC421002008B50DF067
:1032500069FA074B184603F58471FEF7FFFC02205C
:103260000BF0ABFF0020BDE808400BF0A6BF00BF8D
:10327000C421002008B50122064B83F80A2203F07E
:10328000BBFE04F087FEFFF7E1FFBDE8084001F058
:10329000B3B800BFC421002010B5064C064904F5A0
:1032A00003700DF0C0F804F504700449BDE8104047
:1032B0000DF0B9B8C4210020B0090020B8090020E1
:1032C00010B5094C094904F503700DF0ACF804F58C
:1032D000047007490DF0A7F804F505700549BDE82D
:1032E00010400DF0A0B800BFC4210020C00900208C
:1032F000C8090020D0090020014B93F80A0270474A
:10330000C421002010B5064C064904F503700DF0E9
:103310008AF804F504700449BDE810400DF083B844
:10332000C4210020D8090020E009002038B5094C4C
:103330000D4601F03DF8D4F80C02C4F804510DF02C
:103340006AF8FFF70DFB01F077F9012384F81832D2
:1033500038BD00BFC4210020014B93F8180270470C
:10336000C421002010B50D4CD4F810020DF053F814
:10337000D4F814020DF04FF8FFF798FA202000F06F
:103380002FF82F2000F02CF8262000F029F8292013
:1033900000F026F8002384F8183210BDC421002064
:1033A000014B83F819027047C4210020014B93F8A8
:1033B00019027047C4210020C208074900F0070025
:1033C00001238340885C03438B5404490B78934268
:1033D00038BF13460B70704718090020DE23002009
:1033E0000F4B012110B503EBD002C40800F0070019
:1033F00001FA00F0195D21EA0001195509490B781D
:10340000A34205D1002012F8014914B100B10B709C
:1034100010BD002BFAD0013B0120DBB2F3E700BF67
:1034200018090020DE230020014BD3E9000170477A
:1034300018090020054B1868C0F3C022C0F3002013
:10344000400040EA820040F0010070471809002067
:1034500008B509F043FD0023074A32F823108142E2
:1034600005D302EB83029378044A137008BD01333D
:103470000C2BF2D10023F7E71C190400DF230020F6
:10348000024B1878072828BF07207047DF23002049
:1034900010B54468238884F88311A4F8843194F823
:1034A0007400FEF7FBFF84F8860194F87500FEF7C0
:1034B000F5FF054984F8870104F5BD700DF098FD0E
:1034C000002384F82C3110BDAB040100406807498B
:1034D0000388A0F8763190F86C3080F8783190F855
:1034E0006D3000F26D1003730DF07CBDC10401005E
:1034F0002DE9F04389460979456885B099F805803A
:1035000001F00701044695F88E7008F007084B1E7D
:1035100008F1FF320B4002EA0802134395F88F20AE
:10352000242A3DD105F18F060BBB40460DF009F86A
:10353000002840D095F8743098423CD095F82E2160
:1035400018EA020F13D0222F35D095F86D2018EA13
:10355000020F30D10138013B574AC0B2DBB21044F0
:10356000032B007922D81A441379834223D995F882
:103570002C31012B60D11E212046FFF789FF222F1D
:103580005ED16368182283F811210A2283F88E2005
:1035900093F8CA30002B4BD14FF43171AE2008E0C4
:1035A000222F40F0868005F18E06BDE74FF40F71A3
:1035B0000620FDF73BF908460CF0C3FF38B195F83B
:1035C0007530834203D095F82F311942CFD0B9F826
:1035D000067003AB2846424600933B460CF0BEFF04
:1035E000656800283FD195F82C31012B38D1B5F80A
:1035F000883005F5287295F87410B5F830010DF093
:103600000CF8074640BB01462046FFF741FF3770E4
:10361000636803F18F02964202D1002283F88F2063
:10362000636803F18F0296423FD120460DF064FE9D
:10363000002005B0BDE8F083002385F82C319EE71B
:103640000023204633700DF057FE1821204605B0A8
:10365000BDE8F0430DF07CBE282385F88E30D7E717
:1036600085F82C01D4E7B5F88830A5F8A072013FA1
:10367000FF1A47F6FD73BFB29F4206D928232046A2
:1036800085F8B13001F08AFBCAE795F88F300E2B30
:1036900002D00B3B012B01D82A23F0E7BDF80C30F8
:1036A000A5F8A23226233370BAE7002283F8CA2095
:1036B000BEE70220BDE700BF4C190400064B002204
:1036C00083F850204FF6FF72A3F85220A3F854203D
:1036D000A3F85620704700BFE2230020064BB3F842
:1036E0005220824201BF002283F850204FF6FF7221
:1036F000A3F85220704700BFE2230020014BA3F83B
:1037000054007047E2230020084B4FF6FF72B3F8D5
:103710005210914206D193F85020012A04D0036040
:10372000012070470023036000207047E22300203F
:10373000074B93F85020012A1BBF0120B3F85420F7
:10374000002083F8500018BFA3F85220704700BF34
:10375000E2230020014BA3F856007047E22300202B
:10376000074B0246B3F85610B3F85200884205D111
:1037700093F8500018B10120136070470020704783
:10378000E22300200A4BB3F85210B3F856209142BE
:1037900001D0002070474FF6FF72A3F8522093F833
:1037A0005020002AF5D00022012083F850207047D5
:1037B000E2230020064BB3F85210B3F85620914292
:1037C00003BF93F85000B0FA80F040090120704721
:1037D000E223002050B90A4A0120134603F8010BE6
:1037E0000868C2F801008A889A807047012805D1CC
:1037F000034B0A68D8719A608A889A81704700BF23
:103800003A24002050B90B4B187888B1D3F8012026
:10381000B3F805300A6001208B807047012806D17B
:10382000044BD87920B19A689B890A60F3E700209D
:10383000704700BF3A24002010B9044B1878704735
:10384000012806BF014BD879002070473A24002098
:10385000F7B58A8800238DF80600ADF804200868C3
:103860000B4A8DF807300146147802F5A872019DC5
:10387000D8B2844201D8082007E052F8087F01330B
:103880005668AE4208BF8F42F2D103B0F0BD00BF10
:1038900048240020084B0146002230B55C7803F232
:1038A0000113D0B2844201D8082004E013F8015F6C
:1038B00001328D42F5D130BD48240020F8B52D4CA1
:1038C00063782218013B92F80251DBB283426370A5
:1038D00030D01A010101961C8F1C2644274406F1A2
:1038E000100C56F804EB664547F804EBF9D1823228
:1038F00082312244214402F1100652F8047BB24284
:1039000041F8047BF9D1E118221891F8026182F89C
:10391000026106267343704303F5857300F58570D5
:10392000E618E35827182350B388BB8091F83A3142
:1039300082F83A312846FFF7ADFF082818D12378DE
:10394000013BDBB29D42237012D02B3305F12B02D9
:1039500004EBC30304EBC20293E8030082E8030014
:103960002078FFF797FF08281CBF241884F802511D
:10397000F8BD00BF48240020F0B5254D89B095F86A
:10398000984105F299116846224609F0F5FF214653
:1039900068460CF0E8FE0446B8B300EB400102A80C
:1039A000C9B2FDF79FF9631E95F8A1610124DBB24E
:1039B00095F8981105E0721CB2FBF1F001FB1022A2
:1039C000D6B206F120020DEB020010F8202C002ADE
:1039D000F1D103EB430100F8204C06EB4602203105
:1039E0002A44694411F8187C82F8A27111F8177CF6
:1039F00011F8161C82F8A37182F8A411013BAA19D0
:103A0000DBB282F89941FF2BD2D109B0F0BD00BFE3
:103A10004824002070B5064688B00C46002A4ED0D7
:103A2000294A92F8A131D01890F8991119B9FF21BB
:103A30002820FCF7FBFE03EB43010133114491F80E
:103A4000A251E57091F8A35191F8A411257161710B
:103A5000002180F8991192F89811B3FBF1F001FB65
:103A6000103382F8A13192F8C23123B9174902F517
:103A7000DD700DF0BAFA65790D220021684605F077
:103A80003F0545F0400565710FF088FBE37804AA17
:103A900069468DF80F30304623798DF80D508DF83A
:103AA0000E3004230FF0E4FA9DF81F3023709DF8C8
:103AB0001E3063709DF81D30A37008B070BD0321E7
:103AC0006018FDF70FF9D6E7482400207939000087
:103AD000044B5A78824286BF1B1893F84A01002093
:103AE000704700BF48240020044B5A78824286BFAA
:103AF0001B1893F842010020704700BF48240020A3
:103B0000064B00224FF461711A8083F8C32183F8B9
:103B1000C421A3F8C61183F8C221704748240020AD
:103B20002DE9F0478246894617469846FFF790FEF2
:103B300008280546064603D0FFF7ACFE082860D1EA
:103B4000324C6378072B5ED8082D15D12678731C6C
:103B5000072E237003D96C212820FCF767FE06F19D
:103B60002B02D9F8000004EBC20344F83200B9F884
:103B7000042083F806A09A80657807F110026B1C78
:103B8000290163704B1C234412F8010DBA4203F85B
:103B9000010FF9D1813108F11003214413F8012DEF
:103BA000984501F8012FF9D12544102140460CF029
:103BB0006CFE102185F8420138460CF066FE85F84F
:103BC00002616678002385F84A013146104885F87D
:103BD0003A310CF0C8FD0128054607D831460D489A
:103BE0000CF0C1FD002818BF0135EDB284F89851E2
:103BF0000025284684F8A151FFF7BEFE2846BDE8FF
:103C0000F0871220FBE70720F9E700BF48240020D7
:103C10008A25002092250020064B10B558780138DF
:103C200040B2002800DA10BDC4B22046FFF746FEBD
:103C3000601EF5E748240020014B83F8C30170475C
:103C400048240020014B93F8C3017047482400200A
:103C5000431E4AF2B7129BB293429DBF024BA3F898
:103C6000C60101200020704748240020014BB3F812
:103C7000C6017047482400200A4B30B55C78844266
:103C80000ED9184490F802012B3003EBC004A5793B
:103C90000D7053F8300010600120A388938030BD70
:103CA0000020FCE7482400200246074810B590F8A1
:103CB000C34124B1417821B1023005F08DF920468D
:103CC00010BD0C46FBE700BF482400202DE9F74F4C
:103CD0002F4C9A46804689466378834256D92318EA
:103CE00093F8425185F00105F9B193F84A31E3B9EF
:103CF00045F002070135BAF1000F18D1FA070AD5CD
:103D0000062104EB0810524601FB0841823001F500
:103D10008571FFF77FFEBB0734D504EB08105246D0
:103D200049460230FFF776FE2CE02F46E3E794F891
:103D3000A1614FF0010B002DE0D0A31993F8991168
:103D4000019399B90092DAB100F046FC019B06EBB1
:103D50004601009A4FEA102C83F899B1214481F86A
:103D6000A201000C81F8A3C181F8A401013694F8E6
:103D70009831013DB6FBF3F103FB1166F6B2DAE7C9
:103D800047F00407384603B0BDE8F08F0027F9E795
:103D900048240020074B5A78824209D91A1892F811
:103DA00042212AB9062202FB003000F585707047D7
:103DB0000020704748240020064B5A78824281BF79
:103DC0001B1893F83A01B0FA80F0400998BF002020
:103DD000704700BF48240020F8B50E46074606216C
:103DE000154630460CF051FD044670B10C4B0022D4
:103DF000587803F23913D1B2884202D80124204600
:103E0000F8BD013203F8015FF5E7314638460CF0A2
:103E1000C6FC0828F3D0024B034483F83A51EDE77F
:103E20004824002030B5002442F21075A0F840402C
:103E3000B0F844404C43B4FBF2F4A0F84440541EA4
:103E400005FB0343B3FBF2F3A0F84230084BB3FB8E
:103E5000F2F30133A0F84830838F05FB0344436B32
:103E60005943B4FBF2F4B1FBF2F18463416330BD1A
:103E7000005A6202034B80F87C101B680BB100886B
:103E800018477047E8090020014B024A1A60704742
:103E9000E8090020E92601000B2808B504D940F202
:103EA000C7112920FCF7C2FC014B33F8100008BDF4
:103EB00054190400074B93F900301844142804DC0B
:103EC00010F17F0F03DB40B27047142070476FF092
:103ED0007E00704710260020084B1B785B425BB2C7
:103EE0001844142804DC10F17F0F03DB40B2704744
:103EF000142070476FF07E00704700BF102600202E
:103F00007F2307B50DF107008DF8073006F07CF927
:103F100003469DF9070053B1094B5B785B425BB2E6
:103F20001844142806DC10F17F0F05DB40B203B003
:103F30005DF804FB1420FAE76FF07E00F7E700BF9E
:103F400010260020014B1870597070471026002071
:103F5000024B00221A705A70704700BF10260020D2
:103F6000014B93F90000704710260020014B93F994
:103F70000100704710260020054B1B7833B9054B14
:103F80001A681B7902600371012070470020704796
:103F90001226002028090020054BFF221A70054A2E
:103FA000016811600179117100221A70704700BF19
:103FB000122600202809002007B5064A1068127949
:103FC000009068468DF80420FFF7E6FF03B05DF827
:103FD00004FB00BF9EB604000346407898B1DB782E
:103FE0003F2B05D8084AD35C1B1A584258417047EA
:103FF00003F10C02D2B2042A04D8034A134413F882
:10400000B43CF1E7012070476C1904003F2908B562
:10401000C17003D80B4B5B5C437008BD01F10C030E
:10402000DBB2042B04D8074B0B4413F8B43CF3E782
:10403000FF2904D040F23A412A20FCF7F7FB012384
:10404000EAE700BF6C1904002DE9F3478946694689
:10405000154698460CF0B7FB044620B9019E35B9C9
:10406000012386F89530012002B0BDE8F08777691A
:10407000294638460AF0E0FE01460028F4D0174BE6
:104080005B88AB4227D338460BF012F896F8953090
:1040900082460480002B84700CBF494602210CF03C
:1040A000EBFE41462A460AF1030009F065FC294669
:1040B00038460AF0FCFE18B97E212B20FCF7B6FB2F
:1040C0009DF800302BB168460CF043FF019BA3F82C
:1040D000CA410023C5E72046C6E700BF14260020DA
:1040E000034B93F82200C04300F00100704700BF6B
:1040F00014260020044B93F82200C0F3400080F007
:10410000010000F0010070471426002083230B708B
:10411000014B1B78CB707047382600202DE9F84FF3
:10412000D0F804800D46D8F8186030460AF0B2FF87
:10413000044618B9FF211020FCF778FB01463046F1
:104140000AF0B6FFB4F800B082461FFA8BF9B9F155
:10415000000F02D140F20311EDE71E4BC71C1B6894
:104160008BB9B8F80030A5F806B0AB8000236B72AD
:104170009AF8003003F00303012B0FD0022B0DD06F
:1041800040F21D11D7E74A463946B8F80000984773
:1041900004460028E5D12046BDE8F88F30462B7252
:1041A0000AF08CFF044610B94FF49371C3E7B9F1DC
:1041B000FB0F02D940F23511BDE7286810B94FF462
:1041C0009B71B8E74A46394609F0D6FB30460AF0FB
:1041D000D0FEE0E7EC0900202DE9F34705468A46CA
:1041E0000527DFF86C81DFF86C91DAF8103053B1F5
:1041F0001B7A1BB980211020FCF718FBDAF810405D
:10420000B4B900207EE0DAF80440237A012BF8D01C
:10421000EFF3108372B6DAF804201268CAF80420AB
:1042200003B962B6CAF81040237A0BB9A621E2E7B7
:10423000267AF6B22772731E0B2B78D8DFE803F0CC
:1042400074061E36713F4E3F3F3F3F65636813B9AA
:104250004FF4D771CFE72046294698470420EFF363
:10426000108272B6237A052BD9B24FF0000368D1C1
:104270002372CAF81030B2B962B614E0636813B999
:1042800040F2B711B7E72946204698470346ADF8F4
:104290000400C0B2C3F30723012B4BD0022BDED1A5
:1042A0000023CAF8103000289FD02BE0636813B9B0
:1042B00040F2BF119FE7204698470020CFE7D9F88A
:1042C0000030002BF9D03246606829469847A6F1A5
:1042D0000A020420534253415B00DFE763680BB9D5
:1042E000B52188E70D2200242A7001221988586917
:1042F000AA70A5F803106A71AC710AF03AFE0420A6
:10430000CAF8104002B0BDE8F087D8F8003029465E
:1043100020469847034668B100230220CAF81030AF
:10432000F0E74FF4FB7166E740F2F91163E74FF4F1
:10433000FE7160E726720028E4D1002B7FF455AFB0
:104340005FE711B940F21D2155E7184693E700BF1A
:10435000F4090020F009002038B5134C1422002184
:10436000201D0EF01BFF0125257404F10803142203
:10437000002104F11800C4E901330EF00FFF84F8A6
:10438000245004F11C03094AC4E906330023E36204
:10439000236384F83430C4F83530C4F8393084F8F5
:1043A0003D30136038BD00BF38260020EC090020E6
:1043B00010B5084C2378FF2B04D04FF4A0711020C7
:1043C000FCF734FA09F00CFA2070BDE81040FFF752
:1043D000C3BF00BF2D09002010B5034C207809F0A1
:1043E00019FAFF23237010BD2D090020014B187806
:1043F00009F020BA2D090020014B024A1A607047CB
:10440000F40900201D41000010B506490446FFF7DD
:10441000E3FE28B920460449BDE81040FFF7DCBEA2
:1044200010BD00BF502600203C260020134610B5CA
:10443000027A22B140F299211020FCF7F7F90A46DE
:1044400001460248BDE810400CF0ACBD3C260020FF
:10445000044890F834301BB903492C300CF0BFBD30
:10446000704700BF38260020970F0100034606481A
:1044700090F83E203AB190F83D2022B9034900F867
:10448000353B0CF0ACBD7047382600200D410000D4
:104490000A4610B5037A23B140F2A1211020FCF79F
:1044A000C5F9014607230248BDE810400CF07ABD6B
:1044B000502600201346027A0AB1037270470A465A
:1044C000014601480CF06EBD3C260020034608461C
:1044D000F0B4B3F86020B3F8544093F875509442A8
:1044E000B3F85810A5F10305B3F84A7028BF144675
:1044F000B3F86220EDB2B3F84E608A42A3F84A40A6
:1045000028BF0A46012DB3F8501087BFB3F852C038
:1045100015464FF4296C4FF42965A142A3F84E507B
:1045200038BF2146624538BF6246A742A3F8501003
:10453000A3F8522026D1741B18BF0124B3F85C20C5
:10454000B3F85610B3F848609142B3F84C5028BF06
:10455000114693F87420033A012A15D9B3F85A206A
:10456000B3F85E70BA4228BF3A468E42A3F84810AC
:10457000A3F84C2002D1954200D144B10549F0BCCA
:104580000CF036BD0124D9E74FF42962EDE7F0BC09
:10459000704700BF031001000B8BA2F80900104602
:1045A000A2F80B304B8BA2F80D308B8BA2F80F309A
:1045B000CB8B0249A2F811300CF014BD651001003C
:1045C000014B1878704700BF77260020014B187800
:1045D000704700BF2E090020094AD2E9000343407A
:1045E00083EAB01181EA43214FEAF343116053603B
:1045F000044B58434FEAF06000EB8000704700BF67
:1046000078260020BB79379E094AD2E9000343404F
:1046100083EAB01181EA43214FEAF343116053600A
:10462000044B58434FEAF06000EB8000704700BF36
:1046300030090020BB79379E10B50A4C0821094883
:10464000FCF750FBD4E900321343F7D0064CFFF7D8
:10465000DBFF2060FFF7D8FF236860601843F6D0C7
:1046600010BD00BF3009002078260020174B184AE3
:104670009A60184A5A60184A1A60184A9A62184A88
:10468000DA62184ADA60184A9A61184A1A63184AB4
:104690001A62184ADA64184A9A64184A5A62184B1D
:1046A000184A9A60184A5A62184ADA62184A1A6115
:1046B000184A5A61184A9A61184A1A63184A9A6441
:1046C000184ADA64184A9A63704700BF200C002029
:1046D00097130100C7130100FD140100B716010074
:1046E00029170100C54E00003F170100AD51000021
:1046F00019500000FD170100251801007950000035
:10470000340D0020B3130100BD1701006117010033
:104710000517010085170100694F0000D31801003B
:10472000731801005D180100A3170100044B054A2E
:104730005A65054B054A1A65054A5A65704700BF18
:10474000200C002031160100340D00201716010046
:104750005F160100054B064A9A65064A1A66064B23
:10476000064A9A65064ADA65704700BF200C0020A9
:1047700053060100F1340000340D0020290501002A
:1047800005070100114B124A1248134970B5134E28
:10479000134D144C1A60144B144AC3F88C60C3F8C0
:1047A0009050C3F89440124BC3F88C00C3F890109B
:1047B000C3F894200F4BC3E92365C3F894400E4B14
:1047C000C3E92301C3F8942070BD00BF580E002038
:1047D000FD260100712A0100012B0100A12A010020
:1047E000B18E0000858D0000F8090020A12B01008A
:1047F0000C0B0020200C0020340D00203F2A2DE956
:10480000F34105460C4643D83F2A4AD8DFE812F068
:104810004E009F00B900C400DB0099009900E7003A
:10482000E900EF0099009900F400FF00E900490059
:104830004900030199009900160116012C012C0171
:104840003301490049007201870194019A01A001D6
:10485000AB01AD01AF01B101BC01C401F701F90128
:1048600049004900CC010102FF01E501DB01DD0146
:10487000DF01E101E701EB01E901EF0199004900E6
:10488000ED01E301F101030205024900FB01FD0115
:10489000F52A00F0B081FF2A00F0C181F42A00F06F
:1048A000AC814FF4A1615120FBF7C0FF456841F294
:1048B0007073D5F81412B5F80E22A1F57A709842EB
:1048C0000BD84FF47A73B1FBF3F303F550639BB24B
:1048D00064200126B2FBF0F20CE040F2E2406FF4FB
:1048E0005066B1FBF0F39BB29E19062EF0D900265C
:1048F000B2FBF0F2E3711B0A22712372B5F8183291
:1049000063721B0AA372B5F81A32E3721B0A23738F
:1049100095F8173133B905F5037305F50472284688
:104920000CF077FDB5F80C3263731B0AA373D5F84E
:1049300010324EB16422B3FBF2F36371C3F3072369
:10494000A37102B0BDE8F08140F2E242F3E74668AD
:10495000D6F80032D3F801204A605B790B724068C8
:1049600090F817313BB90CF006FD6B68B3F888304E
:104970001844A6F80602B6F8063263721B0AA37240
:10498000DFE70378012B436802D193F8183101E087
:1049900093F821312371D4E74368D3F848224A6061
:1049A000D3F84C228A60B3F850228A81D3F82822A7
:1049B000C1F80E20D3F82C22C1F81220D3F8083108
:1049C000C1F81630BDE74268D2F8E6314B60D2F844
:1049D000EA318B604368D3F80C31CB60B1E74368B0
:1049E000D3E7084602B0BDE8F04100F099BB02B041
:1049F000BDE8F04100F0A4BB10230B7159234B71AB
:104A000000238B712023CB7130230B7299E743680D
:104A100093F81231BEE7027843684AB993F8182137
:104A200032B193F815210A7193F81431637188E754
:104A300093F81321227193F81231F7E74368B3F822
:104A400060200A71120A4A71B3F81A218A71120A97
:104A5000CA71B3F85C200A72120A4A72B3F81831AC
:104A60008B721B0ACB726CE7436893F82E210A7194
:104A700093F82F31DAE7476897F80A82A8F1030321
:104A8000012B31D897F87430DA1E012A2CD8B8EBF4
:104A9000030818BF4FF0010897F80B020BF0CEFD8A
:104AA0000646B8F1000F22D197F80A020BF0C6FDB6
:104AB0008046686890F817316BB946EA080313F02E
:104AC000FF0306D00CF057FC6B68B3F88830034442
:104AD0009BB2A7F80832B7F808326671A3711B0AB7
:104AE00084F80480E3712CE74FF00008D4E74FF01E
:104AF0000008DEE723784168204643F02003237056
:104B00000A7C4B7C01A9032A03F01F0308BF002283
:104B100043EA82138DF804300CF0C6F911E74368BC
:104B200011211888FCF766FB00F15B01204602B0FA
:104B3000BDE8F0410CF0F5B9084602B0BDE8F0411F
:104B40000EF030B8084602B0BDE8F0410EF032B8C1
:104B5000384B1B68002B3FF4F4AE2946204602B0C8
:104B6000BDE8F0411847344BF3E7344BF1E7344BE1
:104B7000EFE7344B1B68002B3FF4E3AE02462320E3
:104B800002B0BDE8F04118472E4B1B68002B3FF4E4
:104B9000D8AE02462420F3E72A4B1B68002B3FF4D3
:104BA000D0AE02462520EBE7436811211888FCF7B8
:104BB00021FB00F17D0200F15B01204602B0BDE85F
:104BC000F0410CF0BAB9204BC3E7204BC1E7204BB2
:104BD000BFE7204BBDE7204BBBE7204BB9E7204B9D
:104BE000B7E7204BB5E7204BB3E7204BB1E7204BAD
:104BF000AFE7204BADE7204BABE7204BA9E7204BBD
:104C0000A7E7204BA5E7204BA3E7204BA1E7204BCC
:104C10009FE7204B9DE7204B9BE7204B99E743689C
:104C2000204693F89722D3F8981202B0BDE8F041DD
:104C30000CF03DB9480E0020500E00204C0E002014
:104C4000540E0020580E00205C0E0020640E002040
:104C50006C0E0020700E0020740E0020780E0020D4
:104C60007C0E0020840E0020800E0020880E002084
:104C70008C0E0020900E0020600E0020680E002098
:104C80009C0E0020A00E0020A40E0020A80E0020E4
:104C9000940E0020980E0020AC0E0020B00E0020D4
:104CA0003F2803D8064B53F82000704700F10C034F
:104CB000DBB2042B01D8B438F4E70020704700BF02
:104CC000200C00203F2803D8064B53F820007047E3
:104CD00000F10C03DBB2042B01D8B438F4E7002058
:104CE000704700BF340D002030F8023CF7B5054690
:104CF0000E4630F8A84C73B101226846ADF8014069
:104D00008DF80020ADF80330FDF77EFF18B1952136
:104D10006320FBF78BFD1D4B1B6813B1A5F1280029
:104D200098471B4B1B680BB120469847194B1B68D3
:104D30000BB1204698470A230027A6F8034033709A
:104D4000B7706B7A55F8900C73710AF01CF908B9BA
:104D5000BA21DDE72046FEF7C1FC39462046FCF7C4
:104D60005FFA02212046FCF75BFA18B90A4B1B6870
:104D700003B198474FF40173002003F004021B0AAB
:104D800062F3070063F30F2003B0F0BDB40E002000
:104D9000B80E0020C00E0020BC0E0020F7B54568FC
:104DA00004464FF6FF776E690DF102010DF1010225
:104DB0003046ADF802700AF095F801A930460AF0C5
:104DC000B3F840B101980AF077F9616800220272E5
:104DD000FFF75EFBE8E7044905F1A80003B0BDE872
:104DE000F0400CF0FFB800BFE94C0000F0B50446FD
:104DF00085B00D46FF2600F8C96C10F8CA3CF3B127
:104E0000184F3B781BB148211F20FBF70FFD0C21E9
:104E1000381DFBF767FF3E70002304F8C93C0923E7
:104E20002A4602F8033BD4F80930C5F80330D4F819
:104E30000D305360D4F81130936005B0F0BD01A877
:104E40000C21FBF74FFFA4F52E73039AC3F80C2136
:104E500001AB03CB44F8D20C44F8CE1C04F8CA6C66
:104E6000DAE700BF8026002010B5054C23782BB967
:104E70000C21201DFBF736FFFF23237010BD00BF60
:104E800080260020024690F8EE31BBB990F8EF3151
:104E900003F0FF010BB100207047094B1878002880
:104EA000F9D01970D9680433C2F80C1103CBC2F8D9
:104EB000E601C2F8EA11FF2382F8EE3101207047C3
:104EC00080260020426838B592F88F3004460D469F
:104ED0003BB1142B05D0123B0B2B8CBF01200820BB
:104EE00038BDD2F81C317BBB92F8D03013B92046C4
:104EF0000CF0F1F96268D5F80E30C2F8DE31D5F861
:104F00001230C2F8E2316368D5F81620C3F80821E0
:104F10001A88A3F8C1226A68C3F8C322AA68C3F832
:104F2000C7226368AA89A3F8CB226368002283F8AA
:104F3000EE2160680B4900F52E700CF050F86368A4
:104F4000162283F88F200BE00C22204603210CF060
:104F5000E6F963683222204683F88F200CF0BBF913
:104F60000020BDE7ED4D000038B54368044693F8D6
:104F70008F201D2A04D04FF4DE711F20FBF756FC52
:104F8000002293F8D0101D8803F5D77083F8CF2046
:104F900069B10B4983F8D020A3F8B85183F8B72141
:104FA0000CF01DF86368002283F88F2038BD0122C1
:104FB00083F8B711A3F8B851024983F8BA21EFE793
:104FC000A3160100951601000B46072210B503F841
:104FD000032B0446D0F80920C1F80320D0F80D2097
:104FE0005A60B0F811201A81C27C9A7210F8483CBD
:104FF0007BB1084B1B681BB93D211C20FBF716FC3D
:10500000A0F5C472A0F5847168389847002304F8AD
:10501000483C10BDC40E002038B50578446825B959
:1050200094F88F302BB101201AE0D4F88030DB07E0
:10503000F9D44A680E4B896813400E4AC4F8E03030
:10504000C3F307630A4043F00803C4F8E42084F87C
:10505000E3300CF040F925B9042384F88F300020A8
:1050600038BDD4F8803043F00103C4F88030F6E74F
:105070002FC904F76FDB0080436810B593F88E20CA
:10508000042A2ED14A6800788C68C3F8E020C2F365
:105090000762C3F8E44042F0080283F8E3200022EC
:1050A00083F8CA2083F88E2008B983F8330193F877
:1050B0003421A2B993F8902102F0FF007AB91A883E
:1050C00083F8910103F5C470A3F892214A68C3F8EC
:1050D00094218A680449C3F898210BF080FF0020CE
:1050E00010BD0120FCE700BFC94F0000436893F8E2
:1050F000342112B1084B1B68184793F8902152B91C
:105100001A8803F5C4700549A3F892211A2283F87E
:1051100091210BF064BF7047C80E0020C94F0000FA
:1051200010B50446FEF780F9034A044B02400B40D9
:105130006260A36010BD00BF2FC904F76FDB008061
:1051400037B50C464568FEF76FF9084B084A03402F
:105150000A4095F8E01000930B4001928DF8003062
:105160006B4603CB6060A16003B030BD2FC904F76C
:105170006FDB008038B5DB04154604D5037D13B121
:105180000023436338BD446B013444630CF082FB5D
:10519000836B9C42F6D30023034943632846BDE852
:1051A00038400BF025BF00BFEF17010070B5446811
:1051B0000546067894F88E30012B09D026B994F86C
:1051C0008F302BB101203FE0D4F880309807F9D41C
:1051D00094F8D1309A0715D40A79D80784F8DB20DF
:1051E000B1F80520A4F8DC20B1F80720A4F8DE20EF
:1051F00043F0020284F8D12010D5194904F1D200FD
:105200000BF0F6FE94F8D130D90712D4EEB994F829
:105210008F3043B150214020FBF708FB94F8323126
:10522000002BEAD1EEE7012384F88F3028460CF0FA
:1052300052F894F88E300020012B4FF0000304BF89
:1052400084F88E3084F8CA3070BDD4F880309A0764
:1052500001D55521DFE743F00203C4F88030E5E7CC
:10526000B518010000F50060104A031392F9001010
:1052700040F3073081420BDD92F901005B425BB2E3
:1052800018447F280DDC10F1800F0CDB40B2704712
:1052900092F90210814202DA92F90300EEE700204F
:1052A00070477F2070476FF07F0070479026002086
:1052B00070B5044650F84F0CFFF7D4FF064640B3D4
:1052C00054F8571C6FF0004354F8532CA4F15705C1
:1052D0009A4208BFB1F1FF3F1BD006F01FFC54F803
:1052E000572C54F8533C9042994112D30223324632
:1052F000202128460DF044FB58B9064B9E8806F045
:105300000DFC4FF47A73E6FB030144F8570C44F8A4
:10531000531C70BD9026002070B545680446FEF70A
:10532000EFFD054B014685F88D001B681BB120463B
:10533000BDE87040184770BDD00E0020044B9B683C
:105340005843C3F580534B4303EB2030704700BFF5
:105350009026002038B543680D460F211888FBF7CA
:1053600049FF044604F000FC7F2DE07321D0A068C3
:105370002946FFF7E3FF0F4BA0601B7BCBB1FFF784
:1053800071FFB0B16FF00043D4E900129A4208BF38
:10539000B1F1FF3F0DD006F0C1FBD4E900239042EC
:1053A000994106D304F157000349BDE838400BF09A
:1053B00025BE38BD90260020B1520000F8B54788C0
:1053C0000346B7F5805F23D20689B2B202B30578EF
:1053D000012D1DD890F9042090F9051010460CF00D
:1053E000A5FAA8B193F90640A24211DAA1420FDD55
:1053F00093F9070082420BDA814209DD054BD87030
:1054000000201A7099709F605C709E801D73F8BDBB
:105410001220FCE7902600200B4B00F500601B7863
:1054200040F307305B425BB218447F2807DC10F181
:10543000800F06DB40B220EAE070C0B270477F20E8
:10544000F9E76FF07F00F6E790260020024B1B681B
:1054500003B11847704700BFCC0E0020014B024A31
:105460001A607047D00E002055530000084BBA2236
:105470001A70E2229A704FF400629A60BF225A704A
:10548000DD22DA7041F288329A8000221A73704766
:1054900090260020F0B51F4D00242B7814709BB18E
:1054A000013B6D68DBB21E1B012E0FDC05EBC40651
:1054B00055F8347076688E4208BF874227D0B842CC
:1054C00071EB060612D214700020F0BD1E19771081
:1054D000C6F3470655F837C005EBC70E8445DEF81E
:1054E00004708F412CBF33463446DCE705EBC30420
:1054F00055F8335064688C4208BF854206D0A842F4
:1055000071EB040428BF01331370DDE71C46012052
:105510001470DAE7A026002010F0070208B503D0C7
:1055200063214820FBF782F918B1034B19725860C8
:105530001A70C80008BD00BFA0260020014B002241
:105540001A707047A02600200A460648822302F8F7
:10555000033B0368C1F8033043685360836893607A
:10556000704700BFA92600201622002101480DF037
:1055700015BE00BFA9260020F7B51E4C02AB03E9FB
:105580000300637DA3B39DF800300D462BBBD1E92A
:1055900072760CF007FA95F87420174B543053F8D4
:1055A00022304FF47A7203F2E733B3FBF2F3DB19E4
:1055B0002A8846F100061B18228046F10006636027
:1055C000A660B5F8883002220C4904F10C00638013
:1055D00003B0BDE8F040FEF76DBF530608D50B8859
:1055E0002380D1F848326360D1F84C32A360E8E7F9
:1055F00003B0F0BDA9260020E01B040049550000BF
:10560000024B187A003818BF01207047C4260020CA
:10561000094B53F8203003F5224370B5B1331646D9
:105620004FF47A720C46B3FBF2F5344404F080FF79
:105630002C44204470BD00BFCC1B04002DE9F04F6A
:1056400099468BB00023044688461746069390F887
:1056500075B00AF028FF054694F87F00FEF71CFCA1
:1056600005440CF09FF994F88F3000F14D06ADB26F
:10567000442B3BD00E2B39D094F88EA0AAF14402D3
:10568000D2F1000A4AEB020A002F5FD194F80432EB
:10569000032B5BD1BAF1000F58D0B4F8A0324345C8
:1056A00054D1D4F80C322046B4F8DC21C4F8F831D7
:1056B000E369C4F8FC31B4F85A321344C4F8003238
:1056C00003F05EFA41F64B53D4F8A82294F8B412D2
:1056D0009A428CBF0023012359B9E1698A421ED046
:1056E000208804930DF07BFA049B18E04FF0010A28
:1056F000CAE720880DF070FA20B940F2937130208B
:10570000FBF794F8B4F8B0326386B4F8B232838110
:10571000B4F8A032C7814381013B03823B4694F831
:105720007E20002A39D1002B38D1D4F8A42284F865
:105730007E300223E262B4F8A22284F80432228688
:10574000D4F8A822E261D4F8AC22626204F50A73AC
:10575000B4F888C00493A8EB0C0CB4F858320FFAD4
:105760008CFCA8EB03031BB2002BB8BFD4E9902339
:1057700094F80412AFBF4A46C4E9942300230122DF
:10578000BCBF84F81F326346032900F2BA81DFE808
:1057900011F010002101690042012BB14FF04D12B0
:1057A000626300222287C0E74FF09612238762636C
:1057B000BBE794F8751094F8D6010BF0D8F883463F
:1057C000E06A2946584407F03DFB2946C4F8080220
:1057D000E06907F037FB94F87E3007A95B00DBB285
:1057E000034408A8C4F80C3204F060FD079B009342
:1057F000DDE90823D4E9940106F097FB054620462D
:105800000CF0F5F8D4F85C32E26A94F8750006936F
:10581000049204F095FE069B00F52240049A203B7A
:10582000D4F80812B13013444FF47A725B1A303155
:105830009B1BB0FBF2F05B4432465B1B1B1A94F8D7
:1058400075000693238E03EB4101FFF7E1FED4F8C8
:105850005C22069BC4F810029B1ACC2B5DD840F248
:10586000FC414CE7E36A2946D4F8FC01184407F0F0
:10587000E9FA2946C4F80802E06907F0E3FA94F867
:105880007E305B00DBB203442046C4F80C320CF0DF
:10589000AEF8E36AD4F8FC511D44B4F8DC31002BB7
:1058A00040F09480B9F1000F00F0908094F87500FA
:1058B00004F046FED4F80812D4F8483200F522402D
:1058C0006D1A94F87520B130203D1D44A74B53F854
:1058D00022204FF47A7302F2E732D4E990BCB2FB93
:1058E000F3F2A5EB0B05B0FBF3F01544AD1B2D1A3D
:1058F000D4F8F831D4F8002294F8750002FB0311B3
:10590000238E32460695303103EB4101FFF780FECE
:105910000123C4F8100284F80432E56904F13C0064
:10592000D4F80C32A93D0699ED1AD4F81032AD1B0B
:105930009D4228BF1D46002384F82832C4F8D85160
:10594000D4E994325B1842F10002C4E98E320BF0C4
:10595000D5FB2844A4F85882C4F82C02D4E98E233D
:10596000C4E9942302F024FB20B1D4F82C321E3376
:10597000C4F82C32B4F8C831A3EB08031BB2002BD7
:10598000D4BF00220122520084F83022BAF1000F65
:1059900040F0BA80B9F1000F40F0B98094F80432B9
:1059A000002B00F0D080E16904F50A70D4F80C32C5
:1059B000C91A0AF076FF80B2002800F0C480149B58
:1059C00003B1188001200BB0BDE8F08FD4F80812A5
:1059D0006D1A8DE7D4F80C02E269D4F80012121A9D
:1059E000D4F8F8515A43D4F8083206923033B4F858
:1059F000DC2105FB01336244521A218E013A00FB7F
:105A00000233324694F8750001EB4301FFF700FEC4
:105A1000C4F8100281E7E16959430691B9F1000F1A
:105A20002DD0B4F8DC0150BB84F81F02D4F80C026E
:105A300000FB131E94F88E300490262BCDF818E04E
:105A400003D094F88F30262B0AD1B4F8A032A8EBFB
:105A500003031B0404D494F8A332002B18BF9B4605
:105A6000B4F8DC017AB370BBD4E99251D4E9902345
:105A7000AA4273EB010108D34FF4AA613FE694F800
:105A80001F0200287FF449AFD0E794F87520203D2D
:105A9000364B53F82230D4E99012CDE9021203F2CA
:105AA000E7324FF47A7103F52243B2FBF1F2B133DE
:105AB0000592029AB3FBF1F3AD1A059A1544ED1A5B
:105AC000AD1B7544069500EB0C05049B3246584609
:105AD0005D4330356D002946FFF79AFD41F64B5383
:105AE000C4F81002E06998423FF617AF06AB3246A1
:105AF0002946009304F504730AF056FF84F81F0248
:105B00000BE74FF4AD61FAE5B9F1000F1BD0B4F823
:105B1000F00110B3B4F8F21194F8F4214D1CA4F87C
:105B2000F21101FB022290420DDD002B0BDD002360
:105B3000A4F8F25184F83032FEF74EFD00F0070071
:105B4000013084F8F40104F50A7194F8200206F09B
:105B50008BF820B940F2B151D1E50146DCE787F07E
:105B6000010784F81C7200202DE700BFCC1B040045
:105B7000F0B5044685B018B9AA213020FAF756FED0
:105B8000072900F2F980DFE811F00800EB003E0081
:105B90003E003900F700E300F50090F81C32B0F841
:105BA000882013B3B0F81A32934208BFB0F8CC3152
:105BB0009A1AA0F8CE21A4F888302046D4E98E2382
:105BC000C4E9902302F004FF94F8D331002B00F0D5
:105BD000BD800CF03EFC694B1B68002B00F0B680CA
:105BE000204605B0BDE8F0401847B0F818329B1ABF
:105BF000A0F8CE31B0F818329BB2DCE705B0BDE8B2
:105C0000F04004F05FBB05F089FFD4E99023801ACF
:105C100061EB0301012871F1000302DA40F23C61FB
:105C2000ABE76FF0010383424FF000038B4102DAD0
:105C300040F23D61A1E7E3690BB1B0FBF3F394F8E7
:105C40008F00B4F81A22442810D094F88E104339EB
:105C500001290BD90E2809D0B4F888100B449BB247
:105C6000D11A0D0444D501339BB243E00132A4F8AC
:105C70001A22B4F85A3202AEB4F888500133404FB9
:105C8000A4F85A32B4F8C2301D44B4F8C030013D13
:105C9000ED1AADB23B685BB1B4F81A12002220468F
:105CA000013989B29847B4F81A321844A4F81A0294
